:100000000C9463000C94D7080C94B0080C948B00EB
:100010000C948B000C948B000C948B000C948B0034
:100020000C948B000C948B000C948B000C948B0024
:100030000C948B000C948B000C948B000C948B0014
:100040000C9466080C948B000C9424090C94FE0804
:100050000C948B000C948B000C948B000C948B00F4
:100060000C948B000C948B000000000024002700EF
:100070002A0000000000250028002B0000000000DE
:1000800023002600290004040404040404040202DA
:100090000202020203030303030301020408102007
:1000A0004080010204081020010204081020000012
:1000B0000008000201000003040700000000000027
:1000C00000009B09310C11241FBECFEFD8E0DEBF2A
:1000D000CDBF23E0AEE7B2E001C01D92A634B20767
:1000E000E1F712E0A0E0B1E0E4EFF0E202C0059039
:1000F0000D92AE37B107D9F710E0C2E6D0E004C0E8
:100100002197FE010E94530EC136D107C9F70E9404
:10011000D9090C946D100C940000833081F028F400
:10012000813099F08230A9F008958730A9F08830A5
:10013000C9F08430B1F4809180008F7D03C080913C
:1001400080008F7780938000089584B58F7784BD79
:10015000089584B58F7DFBCF8091B0008F77809319
:10016000B00008958091B0008F7DF9CFCF93DF93D9
:10017000282F30E0F901E255FF4F8491F901E6564E
:10018000FF4FD491F901EA57FF4FC491CC23A1F05E
:1001900081110E948D00EC2FF0E0EE0FFF1FE4585C
:1001A000FF4FA591B491EC91ED2381E090E009F42B
:1001B00080E0DF91CF91089580E090E0FACF1F9327
:1001C000CF93DF93282F30E0F901E255FF4F849160
:1001D000F901E656FF4FD491F901EA57FF4FC49158
:1001E000CC23A9F0162F81110E948D00EC2FF0E096
:1001F000EE0FFF1FEE58FF4FA591B4918FB7F89403
:10020000EC91111108C0D095DE23DC938FBFDF91F4
:10021000CF911F910895DE2BF8CFCF93DF9390E01D
:10022000FC01E656FF4F24918A579F4FFC018491B1
:100230008823C9F090E0880F991FFC01E859FF4F0F
:10024000A591B491FC01EE58FF4FC591D491611175
:100250000DC09FB7F8948C91209582238C93888150
:10026000282328839FBFDF91CF910895623051F4F6
:100270009FB7F8943C91822F809583238C93E881DB
:100280002E2BEFCF8FB7F894EC912E2B2C938FBFA2
:10029000EACF3FB7F89480918F0290919002A0919D
:1002A0009102B091920226B5A89B05C02F3F19F08C
:1002B0000196A11DB11D3FBFBA2FA92F982F8827E6
:1002C000BC01CD01620F711D811D911D42E0660FC1
:1002D000771F881F991F4A95D1F708958F929F9293
:1002E000AF92BF92CF92DF92EF92FF924B015C01EF
:1002F0000E9449016B017C010E9449016C197D0932
:100300008E099F09683E734081059105A8F321E09D
:10031000821A9108A108B10888EEC80E83E0D81EA1
:10032000E11CF11C81149104A104B10429F7FF9090
:10033000EF90DF90CF90BF90AF909F908F900895F7
:100340000895AF92BF92CF92DF92EF92FF920F93F8
:100350001F93CF93DF936C017B018B01040F151F5B
:10036000EB015E01AE18BF08C017D10759F06991C3
:10037000D601ED91FC910190F081E02DC601099527
:10038000892B79F7C501DF91CF911F910F91FF90D4
:10039000EF90DF90CF90BF90AF900895FC01448123
:1003A00055816081718183E992E00C94A101FC0187
:1003B000538D448D252F30E0842F90E0821B930BCA
:1003C000541710F0CF96089501970895FC01918D70
:1003D000828D981761F0A28DAE0FBF2FB11D5D9673
:1003E0008C91928D9F5F9F73928F90E008958FEF15
:1003F0009FEF0895FC01918D828D981731F0828DC9
:10040000E80FF11D858D90E008958FEF9FEF08951F
:10041000FC01918D228D892F90E0805C9F4F821B83
:1004200091098F739927089583E992E00E94080249
:1004300021E0892B09F420E0822F089580E090E0EC
:10044000892B29F00E94140281110C940000089558
:10045000FC01A48DA80FB92FB11DA35ABF4F2C9139
:10046000848D90E001968F739927848FA689B78930
:100470002C93A089B1898C91837080648C93938D27
:10048000848D981306C00288F389E02D80818F7DCA
:1004900080830895EF92FF920F931F93CF93DF9382
:1004A000EC0181E0888F9B8D8C8D98131AC0E889B0
:1004B000F989808185FF15C09FB7F894EE89FF897F
:1004C0006083E889F98980818370806480839FBF1D
:1004D00081E090E0DF91CF911F910F91FF90EF901D
:1004E0000895F62E0B8D10E00F5F1F4F0F7311272D
:1004F000E02E8C8D8E110CC00FB607FCFACFE88968
:10050000F989808185FFF5CFCE010E942802F1CFC5
:10051000EB8DEC0FFD2FF11DE35AFF4FF0829FB7DB
:10052000F8940B8FEA89FB8980818062CFCFCF93CB
:10053000DF93EC01888D8823B9F0AA89BB89E8890B
:10054000F9898C9185FD03C0808186FD0DC00FB6B1
:1005500007FCF7CF8C9185FFF2CF808185FFEDCF2F
:10056000CE010E942802E9CFDF91CF9108958091BA
:100570008302882361F0809188029091890201961C
:10058000909389028093880281E08093820208958B
:1005900060E085E00E94DF0060E084E00E94DF0010
:1005A00061E086E00E940D0160E086E00C94DF00CF
:1005B0000E94C80260E08CE00E94DF0060E08DE0F5
:1005C0000E94DF0061E08BE00E940D0160E08BE0A3
:1005D0000C94DF0061E085E00E94DF0060E084E0D1
:1005E0000E94DF0061E086E00E940D0161E086E08C
:1005F0000C94DF00FC0101900020E9F73197AF0176
:10060000481B590BBC0183E992E00C94A101FB014A
:1006100044815581FC01248135812417350778F008
:1006200080819181009759F0FB0160817181611592
:10063000710529F00E94541021E0892B09F020E077
:10064000822F0895FC0124813581232B39F421E088
:10065000FB018081882349F020E007C080819181DF
:100660000E94441021E0892BB9F7822F08950F933F
:100670001F93CF93DF93EC0188819981009759F004
:100680002A813B812617370730F081E0DF91CF9137
:100690001F910F9108958B016F5F7F4F0E947E0F16
:1006A000009759F0998388831B830A832C813D81AD
:1006B000232B59F7FC011082E8CF80E0E7CFEF92BF
:1006C000FF920F931F93CF93DF936115710541F450
:1006D00080E0DF91CF911F910F91FF90EF900895EF
:1006E00041155105B1F07B01EC010C811D81040F16
:1006F000151FB8010E943703882351F328813981DF
:100700008C819D81B701820F931F0E944D101D8324
:100710000C8381E0DECFCF93DF93EC018881998158
:10072000009711F00E94F50E198218821D821C821A
:100730001B821A82DF91CF910895CF93DF93EC0152
:10074000FB0101900020E9F73197AF01461B570BE1
:100750000E945F03811103C0CE010E948B03CE0172
:10076000DF91CF910895CF93DF93EC01FB0144819A
:100770005581608171810E945F03811103C0CE01A8
:100780000E948B03CE01DF91CF910895EF92FF92EB
:100790000F931F93CF93DF93EC017B018A01BA0182
:1007A0000E94370381110BC0CE010E948B03CE0142
:1007B000DF91CF911F910F91FF90EF9008951D83CE
:1007C0000C83B701888199810E944D10F0CFFB0105
:1007D00001900020E9F73197AF01461B570B0C94AD
:1007E000C6030F931F93CF93DF93CDB7DEB7629706
:1007F0000FB6F894DEBF0FBECDBF8C01CB01F80160
:100800001182108213821282158214824AE0BE0184
:100810006F5F7F4F0E94640CBE016F5F7F4FC80106
:100820000E94E70362960FB6F894DEBF0FBECDBFFD
:10083000DF91CF911F910F910895CF93DF93EC013A
:10084000FB018617970749F0608171816115710579
:1008500041F0448155810E94C603CE01DF91CF91C2
:1008600008950E948B03F9CFFC011182108213823C
:10087000128215821482FB0101900020E9F7319762
:10088000AF01461B570B0C94C603AF92BF92CF9299
:10089000DF92EF92FF920F931F93CF93DF935C0150
:1008A0006B017A01DB0114960D911C910417150759
:1008B00020F48F2D7801042F182F62E971E0C50113
:1008C0000E943404F601C481D581EC16FD06E0F4E3
:1008D0000C171D0708F4E801D601ED91FC91119762
:1008E000EC0FFD1F108110826D917C916E0D7F1DAC
:1008F000C50161157105A1F00E94E703F601808131
:100900009181C80FD91F1883C501DF91CF911F9125
:100910000F91FF90EF90DF90CF90BF90AF90089530
:100920000E948B03EBCFFC0180819181009711F035
:100930000C94F50E0895CF93DF93CDB7DEB7A8974B
:100940000FB6F894DEBF0FBECDBF8FE191E00E94DD
:10095000FA0261E271E0CE0101960E9434046CE378
:1009600073E0CE0101960E94B3036CE271E00E9435
:100970009D030E94CE01CE0101960E9493046091D6
:10098000880270918902CE0183960E94F1036FE282
:1009900071E0CE0101960E943404BE016D5D7F4F6F
:1009A000CE0101960E94B3036DE271E00E949D03A7
:1009B0000E94CE01CE0101960E949304CE0183963F
:1009C0000E9493046091040170910501CE01839609
:1009D0000E94F10369E371E0CE0101960E943404A4
:1009E000BE016D5D7F4FCE0101960E94B3036DE2A3
:1009F00071E00E949D030E94CE01CE0101960E94EB
:100A00009304CE0183960E94930460917E027091BC
:100A10007F0280918002909181021CA21BA21EA2E3
:100A20001DA218A61FA22AE0AE014F5F5F4F0E94D1
:100A30006F0CBE016F5F7F4FCE0183960E94E7036C
:100A400061E471E0CE0101960E943404BE016D5D47
:100A50007F4FCE0101960E94B3036DE271E00E94C8
:100A60009D030E94CE01CE0101960E949304CE0107
:100A700083960E94930487E00E94B600BC01CE01D9
:100A800083960E94F1036BE471E0CE0101960E940F
:100A90003404BE016D5D7F4FCE0101960E94B30309
:100AA0006DE271E00E949D030E94CE01CE0101968D
:100AB0000E949304CE0183960E94930488E00E94D2
:100AC000B600BC01CE0183960E94F10368E571E097
:100AD000CE0101960E943404BE016D5D7F4FCE01B0
:100AE00001960E94B3036DE271E00E949D030E9493
:100AF000CE01CE0101960E949304CE0183960E94FE
:100B0000930485E00E94B600BC01CE0183960E944A
:100B1000F10363E671E0CE0101960E943404BE0148
:100B20006D5D7F4FCE0101960E94B3036DE271E0CF
:100B30000E949D030E94CE01CE0101960E94930463
:100B4000CE0183960E9493048CE00E94B600BC0103
:100B5000CE0183960E94F1036EE671E0CE0101960C
:100B60000E943404BE016D5D7F4FCE0101960E944C
:100B7000B3036DE271E00E949D030E94CE01CE019D
:100B800001960E949304CE0183960E9493048FE005
:100B90000E94B600BC01CE0183960E94F10369E772
:100BA00071E0CE0101960E943404BE016D5D7F4F5D
:100BB000CE0101960E94B3036DE271E00E949D0395
:100BC0000E94CE01CE0101960E949304CE0183962D
:100BD0000E94930480E10E94B600BC01CE0183967E
:100BE0000E94F10364E871E0CE0101960E94340492
:100BF000BE016D5D7F4FCE0101960E94B3030E943E
:100C0000CE01CE0101960E949304CE0183960E94EC
:100C100093048EE891E00E94FA0280E991E00E943C
:100C2000FA02A8960FB6F894DEBF0FBECDBFDF91D3
:100C3000CF910895AF92BF92CF92DF92EF92FF9241
:100C40000F931F93CF93DF93CDB7DEB72C970FB6DB
:100C5000F894DEBF0FBECDBF83E992E00E94080288
:100C6000892B09F4FAC183E992E00E94E6018A30F7
:100C700009F0E7C118861F821A8619861C861B8612
:100C800060E373E0CE0107960E941D04CF80D884F4
:100C9000C114D10431F00B851C85760101151105B5
:100CA00069F563E971E0CE0107960E94220388236B
:100CB00009F45AC080910601882331F06CE373E097
:100CC00086E393E00E941D04109206010E94D80260
:100CD000109283026CE971E08CE393E00E94E703D9
:100CE0000E949B04CE0107960E94930462E971E082
:100CF00080E393E00E94E703AFCF750157018FEFC8
:100D0000A81AB80AF7018081082E000C990B0E94DE
:100D1000CF0C892B91F7015011090C0D1D1DF80105
:100D20008081082E000C990B0E94CF0C892B31F08A
:100D30000E151F0518F001501109F1CFA8014F5FE2
:100D40005F4F4E195F095C874B87CE14DF0420F498
:100D5000B701C6010E943B10EF81F8858B859C8509
:100D6000E80FF91F10829DCF69EA71E0CE01079666
:100D70000E9422038823C1F081E080930601109233
:100D800089021092880287E00E94B600019719F448
:100D900063EB71E0A1CF65EC71E08CE393E00E941E
:100DA000E7030E94EA029CCF66ED71E0CE01079650
:100DB0000E942203882371F180910601811192CF54
:100DC00011E01093060166E373E08CE393E00E9468
:100DD0001D040E949B0461EE71E08CE393E00E948D
:100DE0002203882319F0109383027CCF65EC71E015
:100DF0008CE393E00E942203811109C06AEE71E046
:100E00008CE393E00E942203882309F46BCF0E94B5
:100E1000EA0268CF68EF71E0CE0101960E943404C7
:100E2000BE016F5F7F4FCE0107960E940703182F08
:100E3000CE0101960E949304112309F4D1C06CE9FC
:100E400071E08CE393E00E942203811111C065ECF4
:100E500071E08CE393E00E942203811109C064E0F9
:100E600072E08CE393E00E942203882309F43ACFD6
:100E7000EB84FC84E114F104A9F54FEF5FEF4F5FC1
:100E80005F4FBE01695F7F4FCE0101960E9445040E
:100E900089819A8110E070E0009719F00E943D0C62
:100EA000162FE12EF72ECE0101960E9493046EE0DC
:100EB00072E0CE0101960E943404BE016F5F7F4F45
:100EC000CE0107960E940703082FCE0101960E94CB
:100ED0009304002309F1EA94EF2809F462CF0E94F9
:100EE000C802FECEEF81F885EE0DFF1DD080108286
:100EF0000F8118856AE370E0C8010E9462100E0D30
:100F00001F1DF801D082009709F4B7CF2F813885D3
:100F1000AC01421B530BB3CF6FE172E0CE010196DF
:100F20000E943404BE016F5F7F4FCE0107960E947E
:100F30000703082FCE0101960E949304002311F1AC
:100F4000EA94EF2889F461E08CE00E94DF0060E021
:100F50008DE00E94DF0061E08BE00E940D0161E006
:100F60008BE00E94DF00BCCE60E08CE00E94DF00DE
:100F700060E08DE00E94DF0061E08BE00E940D01E7
:100F800060E0EECF60E372E0CE0101960E9434048F
:100F9000BE016F5F7F4FCE0107960E940703082FA7
:100FA000CE0101960E949304612F8FE00111D9CFE9
:100FB00061E472E0CE0101960E943404BE016F5FCD
:100FC0007F4FCE0107960E940703082FCE0101969E
:100FD0000E949304002309F483CE612F80E1C1CFE6
:100FE00062E572E0CE0101960E943404BE016F5F9B
:100FF0007F4FCE0107960E940703182FCE0101965E
:101000000E949304112309F46DCE4DE050E0BE011F
:10101000695F7F4FCE0101960E94450489819A81C4
:10102000009759F00E943D0C7093050160930401F4
:10103000CE0101960E94930455CE60E070E0CB0192
:10104000F3CF89831A8241E050E0BE016F5F7F4F8A
:1010500080E393E00E945F03FFCD88E00E94B6002A
:10106000892B19F560E672E08CE393E00E9422037D
:1010700081111BC06CE373E086E393E00E941D04C2
:101080000E94D80260E672E08CE393E00E94E703DE
:101090001092060161E080E10E94DF000E949B0443
:1010A00088E00E94B600892BD9F32C960FB6F894ED
:1010B000DEBF0FBECDBFDF91CF911F910F91FF908B
:1010C000EF90DF90CF90BF90AF9008951F920F9256
:1010D0000FB60F9211242F933F938F939F93AF934B
:1010E000BF9380918B0290918C02A0918D02B09160
:1010F0008E0230918A0223E0230F2D3758F5019696
:10110000A11DB11D20938A0280938B0290938C02C3
:10111000A0938D02B0938E0280918F0290919002E5
:10112000A0919102B09192020196A11DB11D8093F0
:101130008F0290939002A0939102B0939202BF917C
:10114000AF919F918F913F912F910F900FBE0F9074
:101150001F90189526E8230F0296A11DB11DD2CF2E
:101160001F920F920FB60F9211242F933F934F931C
:101170005F936F937F938F939F93AF93BF93EF93FF
:10118000FF93E0910201F09103010995FF91EF9126
:10119000BF91AF919F918F917F916F915F914F918F
:1011A0003F912F910F900FBE0F901F9018951F9297
:1011B0000F920FB60F9211242F933F934F935F938B
:1011C0006F937F938F939F93AF93BF93EF93FF930F
:1011D000E0910001F09101010995FF91EF91BF911C
:1011E000AF919F918F917F916F915F914F913F91BF
:1011F0002F910F900FBE0F901F9018951F920F9276
:101200000FB60F9211242F933F934F935F936F93D9
:101210007F938F939F93AF93BF93EF93FF9383E954
:1012200092E00E942802FF91EF91BF91AF919F91B0
:101230008F917F916F915F914F913F912F910F907F
:101240000FBE0F901F9018951F920F920FB60F921E
:1012500011242F938F939F93EF93FF93E091A30219
:10126000F091A4028081E091A902F091AA0282FD8E
:101270001BC090818091AC028F5F8F732091AD0273
:10128000821741F0E091AC02F0E0ED56FD4F958FF2
:101290008093AC02FF91EF919F918F912F910F90CE
:1012A0000FBE0F901F9018958081F4CFCF92DF92E0
:1012B000EF92FF920F931F93E82FF92F05C0015073
:1012C00011092109310961F1908196239417B9F32D
:1012D00005C0015011092109310911F190819623AE
:1012E0009413F7CFC12CD12CE12CF12C0AC08FEF35
:1012F000C81AD80AE80AF80A0C151D052E053F057C
:1013000079F080818623841791F36C2D7D2D8E2DAD
:101310009F2D1F910F91FF90EF90DF90CF90089538
:1013200060E070E080E090E01F910F91FF90EF90FF
:10133000DF90CF900895E3E9F2E01382128288EE05
:1013400093E0A0E0B0E084839583A683B78381E136
:1013500091E09183808385EC90E09587848784EC8D
:1013600090E09787868780EC90E0918B808B81EC72
:1013700090E0938B828B82EC90E0958B848B86EC53
:1013800090E0978B868B118E128E138E148E64E0F4
:1013900072E08CE393E00E94340462E971E086E33A
:1013A00093E00E94340462E971E080E393E00C94DE
:1013B0003404789484B5826084BD84B5816084BD32
:1013C00085B5826085BD85B5816085BD80916E00E3
:1013D000816080936E001092810080918100826014
:1013E0008093810080918100816080938100809151
:1013F00080008160809380008091B1008460809340
:10140000B1008091B00081608093B00080917A003B
:10141000846080937A0080917A00826080937A0061
:1014200080917A00816080937A0080917A00806850
:1014300080937A001092C100E091A302F091A4027F
:1014400082E08083E0919F02F091A0021082E091FF
:10145000A102F091A2028FEC80831092AB02E09186
:10146000A702F091A80286E08083E091A502F091A6
:10147000A602808180618083E091A502F091A6029E
:10148000808188608083E091A502F091A60280812E
:1014900080688083E091A502F091A60280818F7D13
:1014A000808361E086E00E940D0161E085E00E949A
:1014B0000D0161E084E00E940D0161E08BE00E947B
:1014C0000D0161E08CE00E940D0161E08DE00E9461
:1014D0000D0161E089E00E940D0160E08AE00E9458
:1014E0000D0160E087E00E940D0162E088E00E944B
:1014F0000D0161E08FE00E940D0161E080E10E943A
:101500000D0162E082E00E940D0187EB92E0909372
:1015100001018093000180916900836080936900DC
:10152000E89A87E00E94B600019709F006C163EBD4
:1015300071E08CE393E00E94E7030E94C80260E040
:101540008FE00E94DF0061E080E10E94DF000E94E6
:101550009B0493E0E92EF12C23E2C22ED12C34EA35
:10156000A32E30E0B32E40E9842E40E0942EC0E05C
:10157000D0E00E941A0680910601882309F4D2C0A7
:1015800060E672E08CE393E00E9422038111CAC0FE
:101590006CE971E08CE393E00E9422038111C2C0E8
:1015A00065EC71E08CE393E00E942203882309F448
:1015B000D5C00E94EA0261E08FE00E94DF0060E097
:1015C00080E10E94DF0087E00E94B600019711F5DC
:1015D0000E94C80260E08FE00E94DF0061E080E1CD
:1015E0000E94DF0063EB71E08CE393E00E94E7036D
:1015F0000E949B0468EE73E080E090E00E946E0120
:10160000109289021092880261EE71E08CE393E0FF
:101610000E94E7032FB7F89480918B0290918C027F
:10162000A0918D02B0918E022FBF40918402509103
:1016300085026091860270918702841B950BA60B30
:10164000B70B893E9340A105B10508F46BC060E07B
:1016500089E00E94DF00C7010197F1F761E089E0AE
:101660000E94DF00C6010197F1F760E089E00E9467
:10167000DF00F5016491F4018491E82FF0E0EE0FB2
:10168000FF1FE458FF4F8591949100E412E42FE08E
:1016900030E0462F0E9456096115710581059105BC
:1016A00029F06F5F7F4F8F4F9F4F9F700E94EA0C12
:1016B00026E933E44BE05DE30E94250D20E030E0B5
:1016C00040E05FE30E94250D0E941D0E60937E02A4
:1016D00070937F02809380029093810265EC71E0A9
:1016E0008CE393E00E942203811107C06CE971E052
:1016F0008CE393E00E94220381110E949B042FB788
:10170000F89480918B0290918C02A0918D02B091FF
:101710008E022FBF8093840290938502A09386024D
:10172000B0938702209709F424CF0E9414028823E3
:1017300009F41FCF0E9400001CCF65EC71E08CE320
:1017400093E00E94E70361E08FE00E94DF0060E029
:1017500080E10E94DF000E94EA02F9CE61EE71E0B2
:101760008CE393E00E942203882309F449C081E0BE
:10177000809383020E949B0461E08CE00E94DF0062
:1017800060E08DE00E94DF0061E08BE00E940D01CF
:1017900061E08BE00E94DF00209188023091890295
:1017A00080910401909105012817390734F40E94B3
:1017B0001A068091060181111AC00E94D802109267
:1017C000830280910601882309F424CF60E772E048
:1017D0008CE393E00E94E7030E949B0464EF71E0B6
:1017E00080E090E00E946E016AEE71E00FCF809180
:1017F0008202882389F20E949B0410928202CCCF3D
:101800006AEE71E08CE393E00E942203882309F4DE
:1018100001CF0E949B0461E08FE00E94DF0060E046
:1018200080E10E94DF000E94EA0287E00E94B60089
:10183000019771F40E941A0680910601882309F429
:1018400071CF62E370E080E090E00E946E01EDCF26
:1018500065EC71E08CE393E00E94E7030E949B0437
:10186000D9CE80E393E00E94930486E393E00E9444
:1018700093048CE393E00C9493041F93FC01992749
:101880008827BC01E89411911032E9F3193010F067
:101890001E30C8F31B3251F01D3249F4689406C063
:1018A0000E947E0C610F711D811D911D11911053BD
:1018B0001A30B0F33EF490958095709561957F4F06
:1018C0008F4F9F4F1F910895BB274A3031F49923C2
:1018D00022F4BDE2909581959F4F0C94B60CBB27E6
:1018E0002A3051F4992342F4BDE290958095709589
:1018F00061957F4F8F4F9F4F0C94940C592F482F19
:10190000372F262F660F771F881F991F660F771FA7
:10191000881F991F620F731F841F951F660F771F03
:10192000881F991F0895BB27FA01A62F621771051A
:1019300081059105330B30FB66F0AA27660F771FF0
:10194000881F991FAA1FA21710F0A21B6395385079
:10195000A9F7A05DAA3308F0A95DA19336F7B111EC
:10196000B1931082CA010C94D80CBB27FB015527F8
:10197000AA27880F991FAA1FA41710F0A41B8395EC
:101980005051B9F7A05DAA3308F0A95DA193009763
:1019900079F7B111B1931192CB010C94D80C91113C
:1019A0000C94920D803219F089508550C8F7089533
:1019B000DC01FC01672F71917723E1F7329704C0B6
:1019C0007C916D9370836291AE17BF07C8F3089541
:1019D000E89409C097FB3EF49095809570956195C9
:1019E0007F4F8F4F9F4F9923A9F0F92F96E9BB277F
:1019F0009395F695879577956795B795F111F8CFFB
:101A0000FAF4BB0F11F460FF1BC06F5F7F4F8F4F65
:101A10009F4F16C0882311F096E911C0772321F05B
:101A20009EE8872F762F05C0662371F096E8862FF3
:101A300070E060E02AF09A95660F771F881FDAF74A
:101A4000880F9695879597F908950E94380D0C9404
:101A5000AC0D0E949E0D38F00E94A50D20F095233C
:101A600011F00C94950D0C949B0D11240C94E00D29
:101A70000E94BD0D70F3959FC1F3950F50E0551F67
:101A8000629FF001729FBB27F00DB11D639FAA27D3
:101A9000F00DB11DAA1F649F6627B00DA11D661F22
:101AA000829F2227B00DA11D621F739FB00DA11D43
:101AB000621F839FA00D611D221F749F3327A00DFD
:101AC000611D231F849F600D211D822F762F6A2F99
:101AD00011249F5750409AF0F1F088234AF0EE0FFE
:101AE000FF1FBB1F661F771F881F91505040A9F72B
:101AF0009E3F510580F00C94950D0C94E00D5F3FD6
:101B0000E4F3983ED4F3869577956795B795F79566
:101B1000E7959F5FC1F7FE2B880F911D96958795DE
:101B200097F9089599278827089597F99F6780E87E
:101B300070E060E008959FEF80EC089500240A941F
:101B40001616170618060906089500240A94121698
:101B50001306140605060895092E0394000C11F4CB
:101B6000882352F0BB0F40F4BF2B11F460FF04C078
:101B70006F5F7F4F8F4F9F4F089557FD9058440FD1
:101B8000551F59F05F3F71F04795880F97FB991FDC
:101B900061F09F3F79F08795089512161306140699
:101BA000551FF2CF4695F1DF08C016161706180626
:101BB000991FF1CF86957105610508940895E89401
:101BC000BB2766277727CB0197F908952F923F927D
:101BD0004F925F926F927F928F929F92AF92BF923D
:101BE000CF92DF92EF92FF920F931F93CF93DF93E9
:101BF000CDB7DEB7CA1BDB0B0FB6F894DEBF0FBE46
:101C0000CDBF09942A88398848885F846E847D8492
:101C10008C849B84AA84B984C884DF80EE80FD8094
:101C20000C811B81AA81B981CE0FD11D0FB6F8940A
:101C3000DEBF0FBECDBFED0108950E94240E689453
:101C4000B1110C94E00D08950E94C50D88F09F57C6
:101C500098F0B92F9927B751B0F0E1F0660F771FD0
:101C6000881F991F1AF0BA95C9F714C0B13091F0C6
:101C70000E94DF0DB1E008950C94DF0D672F782FDF
:101C80008827B85F39F0B93FCCF38695779567958B
:101C9000B395D9F73EF490958095709561957F4FF7
:101CA0008F4F9F4F0895EE0FFF1F0590F491E02D89
:101CB00009940F931F93CF93DF938230910510F413
:101CC00082E090E0E0914403F091450330E020E0B1
:101CD000B0E0A0E0309799F42115310509F44AC02D
:101CE000281B390B24303105D8F58A819B81611579
:101CF000710589F1FB0193838283FE0111C040814C
:101D000051810281138148175907E0F0481759079C
:101D100099F4109761F012960C93129713961C93F6
:101D20003296CF01DF91CF911F910F9108950093CB
:101D3000440310934503F4CF2115310551F04217A8
:101D4000530738F0A901DB019A01BD01DF01F80159
:101D5000C1CFEF01F9CF9093450380934403CDCFDA
:101D6000FE01E20FF31F81939193225031093983D1
:101D70002883D7CF2091420330914303232B41F492
:101D80002091090130910A013093430320934203CB
:101D900020910701309108012115310541F42DB73B
:101DA0003EB740910B0150910C01241B350BE09183
:101DB0004203F0914303E217F307A0F42E1B3F0BFD
:101DC0002817390778F0AC014E5F5F4F24173507AD
:101DD00048F04E0F5F1F509343034093420381939B
:101DE00091939FCFF0E0E0E09CCFCF93DF930097FB
:101DF000E9F0FC01329713821282A0914403B09162
:101E00004503ED0130E020E01097A1F420813181FD
:101E1000820F931F20914203309143032817390703
:101E200009F061C0F0934303E0934203DF91CF9147
:101E30000895EA01CE17DF07E8F54A815B819E012C
:101E400041155105B1F7E901FB83EA8349915991A5
:101E5000C40FD51FEC17FD0761F4808191810296B4
:101E6000840F951FE90199838883828193819B83E5
:101E70008A83F0E0E0E012968D919C911397009791
:101E8000B9F52D913C911197CD010296820F931FC8
:101E900020914203309143032817390739F63097D0
:101EA00051F51092450310924403B0934303A0935D
:101EB0004203BCCFD383C28340815181840F951FDD
:101EC000C817D90761F44E5F5F4F88819981480F29
:101ED000591F518340838A819B819383828321157B
:101EE000310509F0B0CFF0934503E09344039ECF52
:101EF000FD01DC01C0CF13821282D7CFB0E0A0E099
:101F0000E4E8FFE00C94E80D8C01009751F4CB015C
:101F10000E94590E8C01C801CDB7DEB7E0E10C94E8
:101F2000040EFC01E60FF71F9C0122503109E21755
:101F3000F30708F49DC0D901CD91DC911197C61724
:101F4000D70798F0C530D10530F3CE010497861736
:101F5000970708F3C61BD70B2297C193D1936D93B4
:101F60007C93CF010E94F50ED6CF5B01AC1ABD0A5F
:101F70004C018C0E9D1EA0914403B0914503512C41
:101F8000412CF12CE12C109731F580914203909176
:101F900043038815990509F05CC04616570608F0FA
:101FA00058C08091070190910801009741F48DB7C6
:101FB0009EB740910B0150910C01841B950BE817C3
:101FC000F90708F055C0F0934303E0934203F90189
:101FD00071836083A0CF8D919C91119712966C9024
:101FE000129713967C901397A815B90559F56C01B3
:101FF00042E0C40ED11CCA14DB0420F1AC014A1922
:102000005B09DA011296159780F062827382518320
:102010004083D9016D937C93E114F10471F0D701F1
:102020001396FC93EE93129776CF22968C0F9D1FFA
:10203000F90191838083F301EFCFF0934503E0939F
:10204000440369CF4816590608F42C017D01D301D9
:102050009ACFCB010E94590E7C01009749F0AE0146
:10206000B8010E943B10C8010E94F50E870153CFB2
:1020700010E000E050CFFB01DC0102C001900D92A6
:1020800041505040D8F70895FB01DC018D9101903B
:1020900080190110D9F3990B0895FB01DC0101901F
:1020A0000D920020E1F70895FB01DC014150504002
:1020B00030F08D910190801919F40020B9F7881B38
:1020C000990B0895FC0181E090E00190061609F457
:1020D000CF010020D1F70197089510E0C2E6D0E0CB
:1020E00004C0FE010E94530E2196C336D107C9F7E2
:0420F000F894FFCF92
:1020F400A001A001140001000046038000000000BC
:10210400004A02A101D70197020802E601FA017B05
:10211400002245535441444F223A2200222C0022EB
:1021240050554C534F53223A00224D455441223AC4
:10213400002254414E515545223A0022535F424FEA
:1021440054454C4C41223A0022535F454D45524779
:10215400223A00224D5F43494E5441223A00224D17
:102164005F424F4D4241223A00224C5F5645524451
:1021740045223A00224C5F524F4A4F223A007D00DA
:102184000D0A00434D443A53544F500050415553A7
:10219400415F52454D4F544100434D443A535441DD
:1021A400525400424F54454C4C415F4445544543BE
:1021B400544144410042555343414E444F5F424FC2
:1021C40054454C4C4100434D443A524553554D45BA
:1021D400004C4C454E414E444F005452414E5350D6
:1021E4004F5254414E444F00434D443A4D414E5595
:1021F400414C5F00494E494349414E444F00434DD1
:10220400443A4D414E55414C5F43494E544100437D
:102214004D443A4D414E55414C5F424F4D42410071
:10222400434D443A4D414E55414C5F4C45445F4704
:1022340000434D443A4D414E55414C5F4C45445F3B
:102244005200434D443A5345545F4D4554413A007E
:10225400454D455247454E4349415F53544F500005
:0E226400424F54454C4C415F4C4C454E41009E
:00000001FF
